:020000020000FC
:100000002498259A219A02EA009380000AE100933D
:10001000810000E0F89400938500009384007894B8
:1000200000E41CE9F894109387000093860078940C
:100030001C9B0E941C00FCCF0E941F0008952D9A5B
:1000400004E813E0F89410938900009388007894F2
:100050002F938F939F9324E68EE39CE90197F1F70A
:100060002A95D1F700009F918F912F9104E51BE015
:10007000F894109389000093880078942F938F93BD
:100080009F9324E68EE39CE90197F1F72A95D1F737
:1000900000009F918F912F9104E213E1F894109347
:1000A00089000093880078942F938F939F9324E680
:1000B0008EE39CE90197F1F72A95D1F700009F9113
:1000C0008F912F9104E51BE0F89410938900009321
:1000D000880078942F938F939F9324E68EE39CE976
:1000E0000197F1F72A95D1F700009F918F912F91F9
:1000F00004E813E0F8941093890000938800789442
:100100002F938F939F9324E68EE39CE90197F1F759
:100110002A95D1F700009F918F912F912D980895E6
:00000001FF
